{
  "transactions": [
    {
      "hash": "0xb3036f62b01f0fede18114a82ffedfb87207b8fcc6cdb345d50f52473968e5f6",
      "transactionType": "CALL",
      "contractName": null,
      "contractAddress": "0x485c6462fad5bf1c5dd2175478a9e3689c68af99",
      "function": "mint(address,uint256)",
      "arguments": [
        "0x3D62cfd6a4E759b6400a8D9a2Fa4D07d574aB13c",
        "1000000000000000000000"
      ],
      "transaction": {
        "from": "0x3d62cfd6a4e759b6400a8d9a2fa4d07d574ab13c",
        "to": "0x485c6462fad5bf1c5dd2175478a9e3689c68af99",
        "gas": "0xc4f1",
        "value": "0x0",
        "input": "0x40c10f190000000000000000000000003d62cfd6a4e759b6400a8d9a2fa4d07d574ab13c00000000000000000000000000000000000000000000003635c9adc5dea00000",
        "nonce": "0xb",
        "chainId": "0xaa36a7"
      },
      "additionalContracts": [],
      "isFixedGasLimit": false
    }
  ],
  "receipts": [
    {
      "status": "0x1",
      "cumulativeGasUsed": "0x10bfbd3",
      "logs": [
        {
          "address": "0x485c6462fad5bf1c5dd2175478a9e3689c68af99",
          "topics": [
            "0xddf252ad1be2c89b69c2b068fc378daa952ba7f163c4a11628f55a4df523b3ef",
            "0x0000000000000000000000000000000000000000000000000000000000000000",
            "0x0000000000000000000000003d62cfd6a4e759b6400a8d9a2fa4d07d574ab13c"
          ],
          "data": "0x00000000000000000000000000000000000000000000003635c9adc5dea00000",
          "blockHash": "0x589ea1e6f348dcccf18fdeac1760647e95d08eca3a14c8f111c4575a2a323b3b",
          "blockNumber": "0x8a919e",
          "blockTimestamp": "0x68b02318",
          "transactionHash": "0xb3036f62b01f0fede18114a82ffedfb87207b8fcc6cdb345d50f52473968e5f6",
          "transactionIndex": "0x60",
          "logIndex": "0xcd",
          "removed": false
        }
      ],
      "logsBloom": "0x00000000000000000000000000000000000000000000000000000000000000000000000000000000000000000000000000000000000000000000000000000000000000000000000000000008000000000000000000000000000000000040000000000000020000000000000000000800000000000000000000000010010000000000000000000000000000000800000000000002000000000000000000000000000000000000000000000000000000000000000000000000000000000000000000000002000000000000000000000000000000000000000000000000080020000000000000000000000000000000000001000000000000000000000000000000",
      "type": "0x2",
      "transactionHash": "0xb3036f62b01f0fede18114a82ffedfb87207b8fcc6cdb345d50f52473968e5f6",
      "transactionIndex": "0x60",
      "blockHash": "0x589ea1e6f348dcccf18fdeac1760647e95d08eca3a14c8f111c4575a2a323b3b",
      "blockNumber": "0x8a919e",
      "gasUsed": "0x8e96",
      "effectiveGasPrice": "0x7398148",
      "from": "0x3d62cfd6a4e759b6400a8d9a2fa4d07d574ab13c",
      "to": "0x485c6462fad5bf1c5dd2175478a9e3689c68af99",
      "contractAddress": null
    }
  ],
  "libraries": [],
  "pending": [],
  "returns": {},
  "timestamp": 1756373785,
  "chain": 11155111,
  "commit": "307f2acce"
}