{
  "transactions": [
    {
      "hash": "0x190fbb22473ab6d88350a8a0b197209c2b0a17e9d19f718684bca82a68b6a6da",
      "transactionType": "CALL",
      "contractName": null,
      "contractAddress": "0x485c6462fad5bf1c5dd2175478a9e3689c68af99",
      "function": "mint(address,uint256)",
      "arguments": [
        "0x3D62cfd6a4E759b6400a8D9a2Fa4D07d574aB13c",
        "1000000000000000000000"
      ],
      "transaction": {
        "from": "0x3d62cfd6a4e759b6400a8d9a2fa4d07d574ab13c",
        "to": "0x485c6462fad5bf1c5dd2175478a9e3689c68af99",
        "gas": "0x17d78",
        "value": "0x0",
        "input": "0x40c10f190000000000000000000000003d62cfd6a4e759b6400a8d9a2fa4d07d574ab13c00000000000000000000000000000000000000000000003635c9adc5dea00000",
        "nonce": "0xa",
        "chainId": "0xaa36a7"
      },
      "additionalContracts": [],
      "isFixedGasLimit": false
    }
  ],
  "receipts": [
    {
      "status": "0x1",
      "cumulativeGasUsed": "0xe01d48",
      "logs": [
        {
          "address": "0x485c6462fad5bf1c5dd2175478a9e3689c68af99",
          "topics": [
            "0xddf252ad1be2c89b69c2b068fc378daa952ba7f163c4a11628f55a4df523b3ef",
            "0x0000000000000000000000000000000000000000000000000000000000000000",
            "0x0000000000000000000000003d62cfd6a4e759b6400a8d9a2fa4d07d574ab13c"
          ],
          "data": "0x00000000000000000000000000000000000000000000003635c9adc5dea00000",
          "blockHash": "0xf09758228f58ba2606bc206d8af69d3f3b66038e00620bb021b99815d10515ca",
          "blockNumber": "0x8a0e2a",
          "blockTimestamp": "0x68a9dc44",
          "transactionHash": "0x190fbb22473ab6d88350a8a0b197209c2b0a17e9d19f718684bca82a68b6a6da",
          "transactionIndex": "0x92",
          "logIndex": "0xf9",
          "removed": false
        }
      ],
      "logsBloom": "0x00000000000000000000000000000000000000000000000000000000000000000000000000000000000000000000000000000000000000000000000000000000000000000000000000000008000000000000000000000000000000000040000000000000020000000000000000000800000000000000000000000010010000000000000000000000000000000800000000000002000000000000000000000000000000000000000000000000000000000000000000000000000000000000000000000002000000000000000000000000000000000000000000000000080020000000000000000000000000000000000001000000000000000000000000000000",
      "type": "0x2",
      "transactionHash": "0x190fbb22473ab6d88350a8a0b197209c2b0a17e9d19f718684bca82a68b6a6da",
      "transactionIndex": "0x92",
      "blockHash": "0xf09758228f58ba2606bc206d8af69d3f3b66038e00620bb021b99815d10515ca",
      "blockNumber": "0x8a0e2a",
      "gasUsed": "0x1142e",
      "effectiveGasPrice": "0xcd54e8",
      "from": "0x3d62cfd6a4e759b6400a8d9a2fa4d07d574ab13c",
      "to": "0x485c6462fad5bf1c5dd2175478a9e3689c68af99",
      "contractAddress": null
    }
  ],
  "libraries": [],
  "pending": [],
  "returns": {},
  "timestamp": 1755962437,
  "chain": 11155111,
  "commit": "307f2acce"
}